:020000040816DC
:100000003DB8F3960000000020000C002000000026
:1000100004000000010007000000000000000000D4
:100020005234CCB950EFE23594BFE7B146AE0D8FF4
:10003000CCC097FCCCD00F1AA353C7913D723D3A68
:1000400008690C00500004000700000107690C015A
:100050001000200021FBEEC2761F29ACF13351E9DC
:10006000A13EC4E22E6974094A347F0E6D9049C8DE
:1000700065097AD90100200005B081D953FA2DA76E
:100080006219365256A21A457B52001E5CA8296D91
:10009000907B13519C9540D32200470030450221AC
:1000A00000A62FBA46D794BF646384FA8F5D4BA72E
:1000B000D93E71ED6958F258DF71B76B37EA32A754
:1000C0002102201F783DA993F1A675AD952D5651BB
:1000D000E016B4C3A8D8A7A0C4AD0C960756CDBDF2
:1000E000A0D58732007100042C7FE67CC11745350E
:1000F000AB11C8C1B8A855F81DCCB16FEA19430BB4
:1001000082B589E3D3E256CF56B51989200A8223F6
:10011000D4BAA168C58FD09A7F4F402A69C857F9D1
:1001200011B62D0095A16550A165AB75A41C691190
:10013000A8D866694C21CBB1AD3178A519C526196F
:1001400051AF506D74339D83C6954D81A90DC2BDCD
:080150007C167DF1BE53139EE5
:101FD000FFFFFFFFFFFFFFFFFFFFFFFFFFFFFFFF11
:101FE000FFFFFFFFFFFFFFFFFFFFFFFFFFFFFFFF01
:101FF00077C295F360D2EF7F3552500F2CB67980BF
:00000001FF
